{
  "_format": "hh-sol-artifact-1",
  "contractName": "SimpleERC20",
  "sourceName": "contracts/SimpleERC20.sol",
  "abi": [
    {
      "inputs": [],
      "name": "InvalidInitialization",
      "type": "error"
    },
    {
      "inputs": [],
      "name": "NotInitializing",
      "type": "error"
    },
    {
      "anonymous": false,
      "inputs": [
        {
          "indexed": true,
          "internalType": "address",
          "name": "owner",
          "type": "address"
        },
        {
          "indexed": true,
          "internalType": "address",
          "name": "spender",
          "type": "address"
        },
        {
          "indexed": false,
          "internalType": "uint256",
          "name": "value",
          "type": "uint256"
        }
      ],
      "name": "Approval",
      "type": "event"
    },
    {
      "anonymous": false,
      "inputs": [
        {
          "indexed": false,
          "internalType": "uint64",
          "name": "version",
          "type": "uint64"
        }
      ],
      "name": "Initialized",
      "type": "event"
    },
    {
      "anonymous": false,
      "inputs": [
        {
          "indexed": true,
          "internalType": "address",
          "name": "from",
          "type": "address"
        },
        {
          "indexed": true,
          "internalType": "address",
          "name": "to",
          "type": "address"
        },
        {
          "indexed": false,
          "internalType": "uint256",
          "name": "value",
          "type": "uint256"
        }
      ],
      "name": "Transfer",
      "type": "event"
    },
    {
      "inputs": [
        {
          "internalType": "address",
          "name": "",
          "type": "address"
        },
        {
          "internalType": "address",
          "name": "",
          "type": "address"
        }
      ],
      "name": "allowance",
      "outputs": [
        {
          "internalType": "uint256",
          "name": "",
          "type": "uint256"
        }
      ],
      "stateMutability": "view",
      "type": "function"
    },
    {
      "inputs": [
        {
          "internalType": "address",
          "name": "spender",
          "type": "address"
        },
        {
          "internalType": "uint256",
          "name": "value",
          "type": "uint256"
        }
      ],
      "name": "approve",
      "outputs": [
        {
          "internalType": "bool",
          "name": "",
          "type": "bool"
        }
      ],
      "stateMutability": "nonpayable",
      "type": "function"
    },
    {
      "inputs": [
        {
          "internalType": "address",
          "name": "",
          "type": "address"
        }
      ],
      "name": "balanceOf",
      "outputs": [
        {
          "internalType": "uint256",
          "name": "",
          "type": "uint256"
        }
      ],
      "stateMutability": "view",
      "type": "function"
    },
    {
      "inputs": [],
      "name": "decimals",
      "outputs": [
        {
          "internalType": "uint8",
          "name": "",
          "type": "uint8"
        }
      ],
      "stateMutability": "view",
      "type": "function"
    },
    {
      "inputs": [
        {
          "internalType": "string",
          "name": "_name",
          "type": "string"
        },
        {
          "internalType": "string",
          "name": "_symbol",
          "type": "string"
        },
        {
          "internalType": "uint8",
          "name": "_decimals",
          "type": "uint8"
        },
        {
          "internalType": "uint256",
          "name": "initialSupply",
          "type": "uint256"
        }
      ],
      "name": "initialize",
      "outputs": [],
      "stateMutability": "nonpayable",
      "type": "function"
    },
    {
      "inputs": [],
      "name": "name",
      "outputs": [
        {
          "internalType": "string",
          "name": "",
          "type": "string"
        }
      ],
      "stateMutability": "view",
      "type": "function"
    },
    {
      "inputs": [],
      "name": "symbol",
      "outputs": [
        {
          "internalType": "string",
          "name": "",
          "type": "string"
        }
      ],
      "stateMutability": "view",
      "type": "function"
    },
    {
      "inputs": [],
      "name": "totalSupply",
      "outputs": [
        {
          "internalType": "uint256",
          "name": "",
          "type": "uint256"
        }
      ],
      "stateMutability": "view",
      "type": "function"
    },
    {
      "inputs": [
        {
          "internalType": "address",
          "name": "to",
          "type": "address"
        },
        {
          "internalType": "uint256",
          "name": "value",
          "type": "uint256"
        }
      ],
      "name": "transfer",
      "outputs": [
        {
          "internalType": "bool",
          "name": "",
          "type": "bool"
        }
      ],
      "stateMutability": "nonpayable",
      "type": "function"
    },
    {
      "inputs": [
        {
          "internalType": "address",
          "name": "from",
          "type": "address"
        },
        {
          "internalType": "address",
          "name": "to",
          "type": "address"
        },
        {
          "internalType": "uint256",
          "name": "value",
          "type": "uint256"
        }
      ],
      "name": "transferFrom",
      "outputs": [
        {
          "internalType": "bool",
          "name": "",
          "type": "bool"
        }
      ],
      "stateMutability": "nonpayable",
      "type": "function"
    }
  ],
  "bytecode": "0x6080604052348015600f57600080fd5b506115e08061001f6000396000f3fe608060405234801561001057600080fd5b506004361061009e5760003560e01c8063313ce56711610066578063313ce5671461015b57806370a082311461017957806395d89b41146101a9578063a9059cbb146101c7578063dd62ed3e146101f75761009e565b806306fdde03146100a3578063095ea7b3146100c157806318160ddd146100f157806323b872dd1461010f578063253279ad1461013f575b600080fd5b6100ab610227565b6040516100b89190610c92565b60405180910390f35b6100db60048036038101906100d69190610d5c565b6102b5565b6040516100e89190610db7565b60405180910390f35b6100f96103a7565b6040516101069190610de1565b60405180910390f35b61012960048036038101906101249190610dfc565b6103ad565b6040516101369190610db7565b60405180910390f35b61015960048036038101906101549190610fbd565b61069f565b005b61016361086d565b604051610170919061106b565b60405180910390f35b610193600480360381019061018e9190611086565b610880565b6040516101a09190610de1565b60405180910390f35b6101b1610898565b6040516101be9190610c92565b60405180910390f35b6101e160048036038101906101dc9190610d5c565b610926565b6040516101ee9190610db7565b60405180910390f35b610211600480360381019061020c91906110b3565b610ac5565b60405161021e9190610de1565b60405180910390f35b6000805461023490611122565b80601f016020809104026020016040519081016040528092919081815260200182805461026090611122565b80156102ad5780601f10610282576101008083540402835291602001916102ad565b820191906000526020600020905b81548152906001019060200180831161029057829003601f168201915b505050505081565b600081600560003373ffffffffffffffffffffffffffffffffffffffff1673ffffffffffffffffffffffffffffffffffffffff16815260200190815260200160002060008573ffffffffffffffffffffffffffffffffffffffff1673ffffffffffffffffffffffffffffffffffffffff168152602001908152602001600020819055508273ffffffffffffffffffffffffffffffffffffffff163373ffffffffffffffffffffffffffffffffffffffff167f8c5be1e5ebec7d5bd14f71427d1e84f3dd0314c0f7b2291e5b200ac8c7c3b925846040516103959190610de1565b60405180910390a36001905092915050565b60035481565b600081600460008673ffffffffffffffffffffffffffffffffffffffff1673ffffffffffffffffffffffffffffffffffffffff168152602001908152602001600020541015610431576040517f08c379a00000000000000000000000000000000000000000000000000000000081526004016104289061119f565b60405180910390fd5b81600560008673ffffffffffffffffffffffffffffffffffffffff1673ffffffffffffffffffffffffffffffffffffffff16815260200190815260200160002060003373ffffffffffffffffffffffffffffffffffffffff1673ffffffffffffffffffffffffffffffffffffffff1681526020019081526020016000205410156104f0576040517f08c379a00000000000000000000000000000000000000000000000000000000081526004016104e79061120b565b60405180910390fd5b81600460008673ffffffffffffffffffffffffffffffffffffffff1673ffffffffffffffffffffffffffffffffffffffff168152602001908152602001600020600082825461053f919061125a565b9250508190555081600460008573ffffffffffffffffffffffffffffffffffffffff1673ffffffffffffffffffffffffffffffffffffffff1681526020019081526020016000206000828254610595919061128e565b9250508190555081600560008673ffffffffffffffffffffffffffffffffffffffff1673ffffffffffffffffffffffffffffffffffffffff16815260200190815260200160002060003373ffffffffffffffffffffffffffffffffffffffff1673ffffffffffffffffffffffffffffffffffffffff1681526020019081526020016000206000828254610628919061125a565b925050819055508273ffffffffffffffffffffffffffffffffffffffff168473ffffffffffffffffffffffffffffffffffffffff167fddf252ad1be2c89b69c2b068fc378daa952ba7f163c4a11628f55a4df523b3ef8460405161068c9190610de1565b60405180910390a3600190509392505050565b60006106a9610aea565b905060008160000160089054906101000a900460ff1615905060008260000160009054906101000a900467ffffffffffffffff1690506000808267ffffffffffffffff161480156106f75750825b9050600060018367ffffffffffffffff1614801561072c575060003073ffffffffffffffffffffffffffffffffffffffff163b145b90508115801561073a575080155b15610771576040517ff92ee8a900000000000000000000000000000000000000000000000000000000815260040160405180910390fd5b60018560000160006101000a81548167ffffffffffffffff021916908367ffffffffffffffff16021790555083156107c15760018560000160086101000a81548160ff0219169083151502179055505b88600090816107d0919061146e565b5087600190816107e0919061146e565b5086600260006101000a81548160ff021916908360ff1602179055506108063387610afe565b83156108625760008560000160086101000a81548160ff0219169083151502179055507fc7f505b2f371ae2175ee4913f4499e1f2633a7b5936321eed1cdaeb6115181d26001604051610859919061158f565b60405180910390a15b505050505050505050565b600260009054906101000a900460ff1681565b60046020528060005260406000206000915090505481565b600180546108a590611122565b80601f01602080910402602001604051908101604052809291908181526020018280546108d190611122565b801561091e5780601f106108f35761010080835404028352916020019161091e565b820191906000526020600020905b81548152906001019060200180831161090157829003601f168201915b505050505081565b600081600460003373ffffffffffffffffffffffffffffffffffffffff1673ffffffffffffffffffffffffffffffffffffffff1681526020019081526020016000205410156109aa576040517f08c379a00000000000000000000000000000000000000000000000000000000081526004016109a19061119f565b60405180910390fd5b81600460003373ffffffffffffffffffffffffffffffffffffffff1673ffffffffffffffffffffffffffffffffffffffff16815260200190815260200160002060008282546109f9919061125a565b9250508190555081600460008573ffffffffffffffffffffffffffffffffffffffff1673ffffffffffffffffffffffffffffffffffffffff1681526020019081526020016000206000828254610a4f919061128e565b925050819055508273ffffffffffffffffffffffffffffffffffffffff163373ffffffffffffffffffffffffffffffffffffffff167fddf252ad1be2c89b69c2b068fc378daa952ba7f163c4a11628f55a4df523b3ef84604051610ab39190610de1565b60405180910390a36001905092915050565b6005602052816000526040600020602052806000526040600020600091509150505481565b600080610af5610bd7565b90508091505090565b8060036000828254610b10919061128e565b9250508190555080600460008473ffffffffffffffffffffffffffffffffffffffff1673ffffffffffffffffffffffffffffffffffffffff1681526020019081526020016000206000828254610b66919061128e565b925050819055508173ffffffffffffffffffffffffffffffffffffffff16600073ffffffffffffffffffffffffffffffffffffffff167fddf252ad1be2c89b69c2b068fc378daa952ba7f163c4a11628f55a4df523b3ef83604051610bcb9190610de1565b60405180910390a35050565b60007ff0c57e16840df040f15088dc2f81fe391c3923bec73e23a9662efc9c229c6a0060001b905090565b600081519050919050565b600082825260208201905092915050565b60005b83811015610c3c578082015181840152602081019050610c21565b60008484015250505050565b6000601f19601f8301169050919050565b6000610c6482610c02565b610c6e8185610c0d565b9350610c7e818560208601610c1e565b610c8781610c48565b840191505092915050565b60006020820190508181036000830152610cac8184610c59565b905092915050565b6000604051905090565b600080fd5b600080fd5b600073ffffffffffffffffffffffffffffffffffffffff82169050919050565b6000610cf382610cc8565b9050919050565b610d0381610ce8565b8114610d0e57600080fd5b50565b600081359050610d2081610cfa565b92915050565b6000819050919050565b610d3981610d26565b8114610d4457600080fd5b50565b600081359050610d5681610d30565b92915050565b60008060408385031215610d7357610d72610cbe565b5b6000610d8185828601610d11565b9250506020610d9285828601610d47565b9150509250929050565b60008115159050919050565b610db181610d9c565b82525050565b6000602082019050610dcc6000830184610da8565b92915050565b610ddb81610d26565b82525050565b6000602082019050610df66000830184610dd2565b92915050565b600080600060608486031215610e1557610e14610cbe565b5b6000610e2386828701610d11565b9350506020610e3486828701610d11565b9250506040610e4586828701610d47565b9150509250925092565b600080fd5b600080fd5b7f4e487b7100000000000000000000000000000000000000000000000000000000600052604160045260246000fd5b610e9182610c48565b810181811067ffffffffffffffff82111715610eb057610eaf610e59565b5b80604052505050565b6000610ec3610cb4565b9050610ecf8282610e88565b919050565b600067ffffffffffffffff821115610eef57610eee610e59565b5b610ef882610c48565b9050602081019050919050565b82818337600083830152505050565b6000610f27610f2284610ed4565b610eb9565b905082815260208101848484011115610f4357610f42610e54565b5b610f4e848285610f05565b509392505050565b600082601f830112610f6b57610f6a610e4f565b5b8135610f7b848260208601610f14565b91505092915050565b600060ff82169050919050565b610f9a81610f84565b8114610fa557600080fd5b50565b600081359050610fb781610f91565b92915050565b60008060008060808587031215610fd757610fd6610cbe565b5b600085013567ffffffffffffffff811115610ff557610ff4610cc3565b5b61100187828801610f56565b945050602085013567ffffffffffffffff81111561102257611021610cc3565b5b61102e87828801610f56565b935050604061103f87828801610fa8565b925050606061105087828801610d47565b91505092959194509250565b61106581610f84565b82525050565b6000602082019050611080600083018461105c565b92915050565b60006020828403121561109c5761109b610cbe565b5b60006110aa84828501610d11565b91505092915050565b600080604083850312156110ca576110c9610cbe565b5b60006110d885828601610d11565b92505060206110e985828601610d11565b9150509250929050565b7f4e487b7100000000000000000000000000000000000000000000000000000000600052602260045260246000fd5b6000600282049050600182168061113a57607f821691505b60208210810361114d5761114c6110f3565b5b50919050565b7f496e73756666696369656e742062616c616e6365000000000000000000000000600082015250565b6000611189601483610c0d565b915061119482611153565b602082019050919050565b600060208201905081810360008301526111b88161117c565b9050919050565b7f416c6c6f77616e63652065786365656465640000000000000000000000000000600082015250565b60006111f5601283610c0d565b9150611200826111bf565b602082019050919050565b60006020820190508181036000830152611224816111e8565b9050919050565b7f4e487b7100000000000000000000000000000000000000000000000000000000600052601160045260246000fd5b600061126582610d26565b915061127083610d26565b92508282039050818111156112885761128761122b565b5b92915050565b600061129982610d26565b91506112a483610d26565b92508282019050808211156112bc576112bb61122b565b5b92915050565b60008190508160005260206000209050919050565b60006020601f8301049050919050565b600082821b905092915050565b6000600883026113247fffffffffffffffffffffffffffffffffffffffffffffffffffffffffffffffff826112e7565b61132e86836112e7565b95508019841693508086168417925050509392505050565b6000819050919050565b600061136b61136661136184610d26565b611346565b610d26565b9050919050565b6000819050919050565b61138583611350565b61139961139182611372565b8484546112f4565b825550505050565b600090565b6113ae6113a1565b6113b981848461137c565b505050565b5b818110156113dd576113d26000826113a6565b6001810190506113bf565b5050565b601f821115611422576113f3816112c2565b6113fc846112d7565b8101602085101561140b578190505b61141f611417856112d7565b8301826113be565b50505b505050565b600082821c905092915050565b600061144560001984600802611427565b1980831691505092915050565b600061145e8383611434565b9150826002028217905092915050565b61147782610c02565b67ffffffffffffffff8111156114905761148f610e59565b5b61149a8254611122565b6114a58282856113e1565b600060209050601f8311600181146114d857600084156114c6578287015190505b6114d08582611452565b865550611538565b601f1984166114e6866112c2565b60005b8281101561150e578489015182556001820191506020850194506020810190506114e9565b8683101561152b5784890151611527601f891682611434565b8355505b6001600288020188555050505b505050505050565b6000819050919050565b600067ffffffffffffffff82169050919050565b600061157961157461156f84611540565b611346565b61154a565b9050919050565b6115898161155e565b82525050565b60006020820190506115a46000830184611580565b9291505056fea26469706673582212208c0f1193077310fe70b703a5e85bcb5d2316bc796e0ec27ab9a7aa322ee199d564736f6c634300081c0033",
  "linkReferences": {},
  "deployedLinkReferences": {}
}